:1000000020C0D2C239C020C237C084C235C034C07B
:1000100033C032C031C030C0D6C22EC02DC00000A7
:100020000000370000000000360001020408102024
:100030000000000038000202020202020102000079
:10004000040011241FBECFE5D2E0DEBFCDBF10E01B
:10005000A0E6B0E0E6ECFDE002C005900D92A2360D
:10006000B107D9F720E0A2E6B0E001C01D92A738A1
:10007000B207E1F7B7D2A5C6C3CF813021F48AB564
:100080008F778ABD0895823019F48AB58F7DF9CFB4
:10009000833021F480B78F7D80BF0895843019F4B8
:1000A0008CB58F7D8CBD08951F93CF93DF93162F52
:1000B00087FF09C08F7771F1813071F1823071F162
:1000C000833071F18FEF282F30E0F901E45CFF4FAE
:1000D0008491F901E65DFF4FD491F901EA5CFF4F8D
:1000E000C491CC2399F08111C8DFEC2FF0E0EE0F22
:1000F000FF1FE05DFF4FA591B4918FB7111112C0A2
:10010000F894EC91D095DE23DC938FBFDF91CF91F3
:100110001F91089585E0D7CF82E0D5CF84E0D3CF7B
:1001200083E0D1CFF894EC91DE2BEECF909161007B
:100130009F3FC9F0981711F08F3FA9F489B78B79C9
:1001400089BF80B7807F80BFE0918100F0918200FD
:10015000309751F080918000908180958923808331
:100160008FEF80936100089580916100813019F4D0
:1001700080B78F7C80BF60E08091610095DFF0CF19
:10018000CF93DF9387FF07C08F7761F1813061F1F3
:10019000823061F183E090E0FC01E65DFF4F249145
:1001A0008A5C9F4FFC0184918823C9F090E0880FFE
:1001B000991FFC01E25EFF4FA591B491FC01E05D47
:1001C000FF4FC591D491611113C09FB7F8948C91E2
:1001D000209582238C938881282328839FBFDF91D9
:1001E000CF91089585E0D7CF82E0D5CF84E0D3CFFB
:1001F000623051F49FB7F8943C91822F809583230D
:100200008C93E8812E2BE9CF8FB7F894EC912E2BAD
:100210002C938FBFE4CFCF92DF92EF92FF92409169
:10022000610041110EC0C0908300D0908400E09026
:100230008500F0908600C616D706E806F90609F490
:1002400081C06B017C01C0928300D0928400E09257
:100250008500F09286004F3F09F035C010BE8CB586
:1002600081788CBD1FBC1EBC1BBC1DBC89B78B79A3
:1002700089BF88B7846688BF80B7806880BF80B731
:100280008F7B80BF8CB58F7B8CBDE6E3F0E0E49183
:10029000F0E0EE0FFF1FE05DFF4F8591949190938A
:1002A000820080938100EAE2F0E0E491E093800034
:1002B00080B78F7C80BF8CB58F7C8CBD61E080E087
:1002C0005FDF109261008091610081113BC080B7B7
:1002D000807F80BF1FBC60E271EA87E090E0A701E9
:1002E000960131D581E02F3F31054105510549F097
:1002F00040F08F3031F08F5F5695479537952795B1
:10030000F2CF9FEF920F9DBD215031094109510954
:100310002EBD4FEF5FEFBA0140937C0050937D00FC
:1003200060937E0070937F00ECE3F0E09491933053
:1003300031F0E491E43019F099B7906499BF90B727
:10034000892B80BFFF90EF90DF90CF9008958F773B
:1003500087B987B187B9369A3699FECF84B195B1FE
:1003600008953FB7F8948091670090916800A0913C
:100370006900B0916A0022B708B601FE05C02F3FA0
:1003800019F00196A11DB11D3FBFBA2FA92F982FBB
:100390008827BC01CD01620F711D811D911D43E0B5
:1003A000660F771F881F991F4A95D1F70895CF923E
:1003B000DF92EF92FF92CF93DF936B017C01D1DF4D
:1003C000EB01CFDF6C1B7D0B683E7340A0F0C114C6
:1003D000D104E104F10439F4DF91CF91FF90EF9063
:1003E000DF90CF90089581E0C81AD108E108F108A4
:1003F000C851DC4FE6CFC114D104E104F10409F780
:10040000EBCF0F931F93CF93DF938C0161E082E0DA
:10041000B7DEC1E0D0E060E082E046DE6AE070E096
:1004200080E090E0C4DF61E082E03EDE64E670E000
:1004300080E090E0BCDF21960C171D0764F7DF9188
:10044000CF911F910F9108951F920F920FB60F92A7
:1004500011242F933F934F935F936F937F938F93C9
:100460009F93AF93BF93EF93FF9380917C00909104
:100470007D00A0917E00B0917F00892B8A2B8B2B71
:1004800061F180917C0090917D00A0917E00B091FF
:100490007F00181619061A061B0694F580917C0039
:1004A00090917D00A0917E00B0917F000197A109FD
:1004B000B10980937C0090937D00A0937E00B0935F
:1004C0007F0080917C0090917D00A0917E00B09192
:1004D0007F00892B8A2B8B2B99F48FEF27DEFF91DE
:1004E000EF91BF91AF919F918F917F916F915F91AC
:1004F0004F913F912F910F900FBE0F901F90189525
:1005000090918000E0918100F091820080818927A4
:100510008083E5CF1F920F920FB60F9211242F9375
:100520003F938F939F93AF93BF938091630090917C
:100530006400A0916500B09166003091620026E0F1
:10054000230F2D3768F129E8230F0396A11DB11D54
:10055000209362008093630090936400A0936500F1
:10056000B09366008091670090916800A091690047
:10057000B0916A000196A11DB11D80936700909310
:100580006800A0936900B0936A00BF91AF919F91FA
:100590008F913F912F910F900FBE0F901F90189544
:1005A0000296A11DB11DD4CF1F920F920FB60F92CC
:1005B00011248F9381E080937B008F910F900FBE69
:1005C0000F901F9018951F920F920FB60F92112443
:1005D0008F9381E0809360008F910F900FBE0F90FA
:1005E0001F90189581B781BF78948AB582608ABDC3
:1005F0008AB581608ABD83B7887F826083BF789423
:1006000089B7826089BF80B7807F80BF80B78068EC
:1006100080BF80B7806480BF8CB580648CBD8FEF55
:100620008DBD80B7846080BF86B18877836886B9C6
:10063000379A61E082E0A4DD61E081E0A1DD61E064
:1006400080E09EDD61E083E89BDD61E083E82CDDF6
:1006500061E082E029DD90E080E03ED2C82FD0E06A
:10066000D0936C00C0936B0081E090E035D2DC2F1A
:10067000CC27C80FD11DD0937400C09373008AE0BB
:1006800090E02AD280937A00843018F081E0809341
:100690007A0085B78C7F85BF84B7877F84BF81B59B
:1006A000886181BD81E381BD81B5806481BD34E114
:1006B000832E912CA12CB12C05E010E02224239450
:1006C00080917B00813009F0DBC010927B0062E0FA
:1006D00082E056DD6AE070E080E090E068DED0E025
:1006E000C0E0F12CE12CEEE3F0E08491ECE2F0E0EC
:1006F000C490E8E3F0E0D490DD20C9F08111BDDCC6
:10070000ED2DF0E0EE0FFF1FEC5DFF4FA591B491D2
:100710008C91C82261F0F4E6EF16F104E4F16091E7
:100720007A008AE090E0E0D138C0E701DCCF8FEFBB
:10073000E81AF80A6AE070E080E090E038DECE0166
:100740008D599F4F8E159F050CF0CDCF80917A006B
:100750008F5F8430E8F480937A00C0907A00C1E023
:10076000D0E0D12CCC16DD0604F368EE73E080E017
:1007700090E051DD62E370E080E090E018DE80E020
:10078000D5DC62E370E080E090E011DE2196EACFF4
:1007900020927A00E2CF2092790080917900813016
:1007A00009F050C060E083E8EBDC61E081E07CDCD4
:1007B00062E070E080E090E0FADDC5E1D0E083E83F
:1007C000C6DD092E000CAA0BBB0B409175005091A1
:1007D000760060917700709178006C017D01C40E05
:1007E000D51EE61EF71EC0927500D0927600E092EC
:1007F0007700F092780062E070E080E090E0D7DD72
:100800002197E9F660E081E04FDC61E083E8B8DC45
:1008100061E083E849DCC701B601A5019401B5D2C6
:100820002093730030937400632F90E080E05CD1DC
:100830006091730081E090E057D185E090E0E1DDC8
:10084000109279001092600010927B008BB7806448
:100850008BBF379885B7877E806185BF85B78062FB
:1008600085BF85B7806285BF889585B78F7D85BF39
:1008700085B78F7D85BF379A8BB78F7B8BBF20CF96
:1008800080916000813011F71092600030907A0002
:1008900093E0931508F419C182E859DDBC01990F62
:1008A000880B990B31D120E030E040E85BE36BD15D
:1008B00020E030E040E251E466D12B013C0140925F
:1008C0006F0050927000609271007092720060E050
:1008D00083E856DC61E081E0E7DB1092750010925E
:1008E000760010927700109278006AE070E080E065
:1008F00090E05DDDC5E1D0E083E829DD092E000C44
:10090000AA0BBB0B40917500509176006091770067
:10091000709178006C017D01C40ED51EE61EF71E95
:10092000C0927500D0927600E0927700F092780045
:100930006AE070E080E090E03ADD2197E9F6C701D7
:10094000B601A501940121D269017A01C092750016
:10095000D0927600E0927700F092780061E083E830
:100960000FDC61E083E8A0DB60E081E09DDB80914B
:10097000730090917400C296092E000CAA0BBB0B59
:10098000C816D906EA06FB060CF441C0832D8D7FFC
:10099000813009F09DC020E030E040E050E4C30128
:1009A000B201EDD087FD30C080916D0090916E0056
:1009B00002970CF598EEC92E93E0D92EE12CF12C7C
:1009C000C701B60128DCE1EEF4E03197F1F700C091
:1009D0000000F8ECCF0ED11CE11CF11C88EBC8160E
:1009E0008BE0D806E104F10459F78FEF9FDB1093F9
:1009F0006E0000936D0080916D0090916E000197E4
:100A000090936E0080936D0084E090E0FADC80911A
:100A1000730090917400C297092E000CAA0BBB0BB7
:100A20004091750050917600609177007091780048
:100A300084179507A607B7070CF447C080917A0082
:100A4000833009F042C020E030E040E050E46091A3
:100A50006F007091700080917100909172008FD042
:100A600087FD30C080916D0090916E0002970CF56B
:100A700088EBC82E8BE0D82EE12CF12CC701B601F3
:100A8000CADBE1EEF4E03197F1F700C00000F8ECCA
:100A9000CF1AD108E108F10888EEC81683E0D8061D
:100AA000E104F10459F78FEF41DB10936E000093DE
:100AB0006D0080916D0090916E00019790936E0093
:100AC00080936D0084E090E09CDC10926000BECECC
:100AD00092E039129CCF98CFE199FECF9FBB8EBB9D
:100AE000E09A99278DB30895262FE199FECF1CBA7D
:100AF0009FBB8EBB2DBB0FB6F894E29AE19A0FBE56
:100B000001960895E89409C097FB3EF4909580956E
:100B1000709561957F4F8F4F9F4F9923A9F0F92FC3
:100B200096E9BB279395F695879577956795B79541
:100B3000F111F8CFFAF4BB0F11F460FF1BC06F5F27
:100B40007F4F8F4F9F4F16C0882311F096E911C039
:100B5000772321F09EE8872F762F05C0662371F05A
:100B600096E8862F70E060E02AF09A95660F771F6E
:100B7000881FDAF7880F9695879597F908956ED0B4
:100B800008F48FEF08950AD0A4C095D028F09AD029
:100B900018F0952309F086C08BC0CFC0ABD0A8F366
:100BA0009923D9F35523C9F3950F50E0551FAA2770
:100BB000EE27FF27BB2700240894679520F4E20F57
:100BC000F31FB41F0A1E220F331F441FAA1F66956E
:100BD000A9F7779530F4F30FB41F0A1E121E08F41C
:100BE0006395330F441FAA1F221F769599F78795A7
:100BF00020F4B40F0A1E121E631F440FAA1F221FE7
:100C0000331F8695A9F7862F712D602D11249F57CC
:100C100050408AF0E1F088234AF0EE0FFF1FBB1F1F
:100C2000661F771F881F91505040A9F79E3F5105BE
:100C300070F038C082C05F3FECF3983EDCF38695DD
:100C400077956795B795F795E7959F5FC1F7FE2B69
:100C5000880F911D9695879597F90895990F00082B
:100C6000550FAA0BE0E8FEEF16161706E807F9077E
:100C7000C0F012161306E407F50798F0621B730B19
:100C8000840B950B39F40A2661F0232B242B252B9A
:100C900021F408950A2609F4A140A6958FEF811D3D
:100CA000811D089597F99F6780E870E060E00895DE
:100CB0009FEF80EC089500240A9416161706180674
:100CC0000906089500240A94121613061406050650
:100CD0000895092E0394000C11F4882352F0BB0FE1
:100CE00040F4BF2B11F460FF04C06F5F7F4F8F4F44
:100CF0009F4F089557FD9058440F551F59F05F3F7F
:100D000071F04795880F97FB991F61F09F3F79F02D
:100D100087950895121613061406551FF2CF4695AF
:100D2000F1DF08C0161617061806991FF1CF869531
:100D30007105610508940895E894BB276627772715
:100D4000CB0197F90895A1E21A2EAA1BBB1BFD0146
:100D50000DC0AA1FBB1FEE1FFF1FA217B307E4079A
:100D6000F50720F0A21BB30BE40BF50B661F771FF2
:100D7000881F991F1A9469F76095709580959095D2
:100D80009B01AC01BD01CF010895052E97FB16F420
:100D900000940FD057FD05D0D6DF07FC02D046F4F3
:100DA00008C050954095309521953F4F4F4F5F4F6C
:100DB000089590958095709561957F4F8F4F9F4FC7
:060DC0000895F894FFCF36
:020DC60001FF2B
:00000001FF
